:1000000088C00000A1C000009FC000009DC000008B
:100010009BC0000099C0000097C0000095C0000080
:1000200093C0000091C000008FC000008FC200008C
:1000300032C3000089C0000087C0000085C00000F6
:1000400083C0000081C000007FC000007DC00000B0
:100050007BC0000079C0000077C0000036C10000FE
:1000600073C0000071C000006FC000006DC00000D0
:100070006BC000001201100102000008EB034B20CE
:1000800001000102DC0109023E00020100C0320948
:1000900004000001020201000524001001042402F2
:1000A000060524060001070582030800FF09040174
:1000B00000020A0000000705040210000107058382
:1000C00002100001040309041803440065006100E4
:1000D0006E002000430061006D0065007200610049
:1000E000000030034C005500460041002000550040
:1000F000530042002D005200530032003300320002
:10010000200041006400610070007400650072000E
:10011000000011241FBECFEFD2E0DEBFCDBF11E043
:10012000A0E0B1E0ECE0FFE002C005900D92AA3241
:10013000B107D9F711E0AAE2B1E001C01D92AC38D5
:10014000B107E1F761D0E0C65BCFFC01A081B181CE
:100150006C93808191810196918380832681378180
:100160008217930721F484819581918380832FB72F
:10017000F894818592850196928781872FBF089593
:10018000FC01A281B3818D91B383A2832681378143
:10019000A217B30721F424813581338322839FB7CB
:1001A000F8942185328521503040328721879FBFC6
:1001B0000895FC018FB7F894718360837383628321
:1001C00075836483605E7F4F7783668390E2908758
:1001D000128611868FBF089584B7877F84BF88E118
:1001E0000FB6F89480936000109260000FBE90E00C
:1001F00080E80FB6F89480936100909361000FBE81
:1002000096D184E085BD0895CF93DF93E5DF85E344
:1002100091E060E471E0CDDF8AE291E060E671E0B8
:10022000C8DF78948FB7F89420913E0130913F0158
:100230008FBF80913D0190E02817390749F080E099
:1002400091E013D6BC0197FD03C085E391E07DDF0B
:100250008FB7F894C0913301D09134018FBFA89922
:1002600003C0C93CD10590F0A89A0EC0E0912C01C2
:10027000F0912D0180E091E0608190D52197882355
:1002800029F48AE291E07CDF209781F72FB7F89478
:1002900080913E0190913F012FBF009749F085E387
:1002A00091E06EDF9091C80095FFFCCF8093CE0067
:1002B00080E091E0CBD5A8D4B5CF0895089580E033
:1002C00091E021C580E091E0B1C41F920F920FB67A
:1002D0000F9211242F933F934F935F936F937F93CC
:1002E0008F939F93AF93BF93EF93FF936091CE0053
:1002F0008EB3843019F48AE291E027DFFF91EF9109
:10030000BF91AF919F918F917F916F915F914F912D
:100310003F912F910F900FBE0F901F9018951F9334
:10032000FC01A489A150A23028F4B0E0A95DBE4F21
:100330001C9101C010E08389823009F4186085891E
:10034000873031F0883031F0863029F4126003C0F4
:10035000146001C016601092C9001092C80010927B
:10036000CA002785308941895289CA01B901969509
:10037000879577956795605C7D4B804F9F4FA2D5A1
:10038000215030403093CD002093CC001093CA0010
:100390001092C80088E98093C9001F910895923097
:1003A00029F0933041F09130E9F417C02EE330E0AA
:1003B000E6E8F0E01BC0813041F0813018F0823077
:1003C00089F406C0E4ECF0E005C0E8ECF0E002C01F
:1003D000E2EEF0E0249130E009C022E130E0E4E711
:1003E000F0E004C020E030E0E0E0F0E0DA01119657
:1003F000FC93EE93C90108958093E900EBEEF0E0E1
:10040000808181608083EDEEF0E010826093EC00EB
:1004100040838091EE00881F8827881F089580916F
:10042000840187FF11C003C08EB38823B1F080918F
:10043000E80082FFF9CF8091E8008B778093E80095
:1004400008958EB3882349F08091E80080FFF9CFAA
:100450008091E8008E778093E80008958091E40011
:100460009091E50044E62091EC0020FF05C020912A
:10047000E80020FF05C019C02091E80022FD15C04A
:100480002EB32223A1F02530A1F02091EB0025FD11
:1004900012C02091E4003091E5002817390719F3C4
:1004A000442359F04150C901DECF80E0089582E035
:1004B000089583E0089581E0089584E0089540D090
:1004C00042D08091D800982F9F779093D800806871
:1004D0008093D8008091D8008F7D8093D80084E0ED
:1004E00089BD89B5826089BD09B400FEFDCF1EBA01
:1004F00010928201109281011092800180E060E0F0
:1005000042E07ADF8091E1008E7F8093E10080916C
:10051000E20081608093E2008091E2008860809335
:10052000E2008091E0008E7F8093E0000895E3E692
:10053000F0E080818E7F808381E080938301BFCF54
:100540001092E20008951092E10008951F920F9218
:100550000FB60F9211242F933F934F935F936F9396
:100560007F938F939F93AF93BF93EF93FF9380916C
:10057000E10082FF0AC08091E20082FF06C0809104
:10058000E1008B7F8093E1004DD28091E10080FFFC
:1005900016C08091E20080FF12C08091E2008E7F41
:1005A0008093E2008091E20080618093E20080917C
:1005B000D80080628093D80019BC1EBA7FDE80917B
:1005C000E10084FF2DC08091E20084FF29C084E017
:1005D00089BD89B5826089BD09B400FEFDCF8091D7
:1005E000D8008F7D8093D8008091E1008F7E80932A
:1005F000E1008091E2008F7E8093E2008091E20032
:1006000081608093E20080918201882321F48091AF
:10061000E30087FF02C084E001C081E08EBB4DDEB5
:100620008091E10083FF26C08091E20083FF22C019
:100630008091E100877F8093E10082E08EBB109281
:1006400082018091E1008E7F8093E1008091E20041
:100650008E7F8093E2008091E20080618093E200CF
:1006600080E060E042E0C8DE8091F0008860809326
:10067000F000D8D1FF91EF91BF91AF919F918F91F1
:100680007F916F915F914F913F912F910F900FBE8E
:100690000F901F9018951F920F920FB60F92112472
:1006A000EF92FF920F931F932F933F934F935F937C
:1006B0006F937F938F939F93AF93BF93EF93FF932A
:1006C000DF93CF930F92CDB7DEB789EEE82EF12CF2
:1006D000F70180818770108200EF10E0F8019081AF
:1006E000977F90837894898321D0F7011082F80155
:1006F0009081986090838981F70180830F90CF91DA
:10070000DF91FF91EF91BF91AF919F918F917F9179
:100710006F915F914F913F912F911F910F91FF909A
:10072000EF900F900FBE0F901F9018950F931F938F
:10073000DF93CF93CDB7DEB7AC970FB6F894DEBF9B
:100740000FBECDBF8091F100809384018091F100B4
:10075000809385019091F1008091F100E6E8F1E04D
:100760009093860181839091F1008091F1009093A4
:10077000880183839091F1008091F10090938A0128
:100780008583A0DD8091E80083FF33C180918401DF
:1007900020918501253009F484C0263040F42130B1
:1007A000A1F1213070F0233009F023C12EC0283090
:1007B00009F4F2C0293009F401C1263009F019C149
:1007C00095C0803821F0823809F013C108C08091AB
:1007D000800190918101992371F082600CC0809119
:1007E000880187708093E9009091EB0081E095FF8C
:1007F00080E01092E9009091E800977F9093E800E4
:100800008093F1001092F100D2C0882319F0823059
:1008100009F0EFC090E08F719070009729F082305E
:10082000910509F0E6C00BC080918601813009F086
:10083000E0C0233009F080E0809381012CC08091DA
:100840008601882341F520918801277009F4D1C0E1
:100850002093E9008091EB0080FF1DC0809185010D
:10086000833021F48091EB00806213C08091EB0013
:1008700080618093EB0081E090E002C0880F991FB7
:100880002A95E2F78093EA001092EA008091EB004B
:1008900088608093EB001092E9008091E800877FE8
:1008A00089C0882309F0A5C0109186011F770FB772
:1008B000F8948091E800877F8093E800B0DD809114
:1008C000E80080FFFCCF8091E3008078812B80934B
:1008D000E3008091E30080688093E300112311F02E
:1008E00083E001C082E08EBB0FBF83C0805882309E
:1008F00008F07FC0809186019091870123E08C3DB4
:10090000920791F583E08C838AE28B835FB7F8943A
:10091000DE01159680E090E04EE061E2E42FF0E029
:1009200060935700E49180FF03C0E295EF704F5F42
:10093000EF702E2F30E0EA3018F0295C3F4F02C0F4
:10094000205D3F4F2D933D9301968431910531F702
:100950005FBF8091E800877F8093E800CE01039617
:100960006AE270E060D012C060918801AE014F5F12
:100970005F4F15DDBC01009709F43BC08091E80092
:10098000877F8093E80089819A81E3D08091E80095
:100990008B778093E8002DC0803859F58091E8006E
:1009A000877F8093E800809182018093F10080919D
:1009B000E8008E778093E80032DD1BC08823C9F4FD
:1009C000909186019230A8F48091E800877F80930F
:1009D000E8009093820123DD80918201882321F435
:1009E0008091E30087FF02C084E001C081E08EBBFC
:1009F00066DC8091E80083FF0AC08091EB00806292
:100A00008093EB008091E800877F8093E800AC96AC
:100A10000FB6F894DEBF0FBECDBFCF91DF911F910F
:100A20000F9108950895282F392FF90180918A0197
:100A300090918B018617970718F4BC0120E034C011
:100A400061157105D9F78091E8008E778093E800F1
:100A5000F5CF8EB38823E9F18530B9F18091E800B4
:100A600083FD35C08091E80082FD29C08091E800B7
:100A700080FF1AC08091F20090E006C0219120937F
:100A8000F1006150704001966115710519F08830D0
:100A90009105A0F321E08830910509F020E08091D4
:100AA000E8008E778093E8006115710591F62223A6
:100AB00081F605C08EB3882361F0853061F08091A6
:100AC000E80082FFF7CF80E0089583E0089581E099
:100AD000089582E0089583E008956115710511F588
:100AE0001CC02EB3222389F1253059F12091E80052
:100AF00023FD29C02091E80022FFF3CFE82FF92F32
:100B000007C08091F1008193CF016150704029F0BE
:100B1000CF012091F2002223A1F72091E8002B774A
:100B20002093E80061157105E1F605C08EB38823B6
:100B300061F0853061F08091E80080FFF7CF80E0C0
:100B4000089583E0089581E0089582E0089583E0A8
:100B50000895E82FF92F80918A0190918B018617D3
:100B6000970718F4BC0120E036C061157105D9F76C
:100B70008091E8008E778093E800F5CF8EB38823CC
:100B800009F43EC08530C1F18091E80083FD36C094
:100B90008091E80082FD2AC08091E80080FF1BC0A0
:100BA0008091F20090E007C024912093F1003196EB
:100BB0006150704001966115710519F088309105FA
:100BC00098F321E08830910509F020E08091E80059
:100BD0008E778093E8006115710581F6222371F606
:100BE00005C08EB3882361F0853061F08091E80004
:100BF00082FFF7CF80E0089583E0089581E00895B3
:100C000082E0089583E008951F938EB3882361F0F6
:100C10001091E90017701092E9008091E80083FFBD
:100C200001C084DD1093E9001F910895CF93DF93F5
:100C3000EC018091E80083FF63C0888190E02091FF
:100C40008801309189012817390709F059C080912E
:100C50008501813261F0823220F4803209F050C087
:100C60001BC0823279F1833209F04AC03BC08091C7
:100C70008401813A09F044C08091E800877F809325
:100C8000E800CE010F9667E070E0CDDE8091E800CD
:100C90008B778093E80034C080918401813281F5A4
:100CA0008091E800877F8093E800CE010F9667E08F
:100CB00070E013DF8091E8008E778093E800CE012A
:100CC0002EDB1EC0809184018132D1F48091E80036
:100CD000877F8093E800A3DB809186018D87CE011A
:100CE000F0D00EC080918401813251F48091E800EF
:100CF000877F8093E80093DBCE0160918601E1D08D
:100D0000DF91CF9108951F93CF93DF93EC010D9660
:100D1000FC0189E0DF011D928A95E9F711E08981E4
:100D2000181729F4EA81FB819C8181E007C08D813D
:100D3000181731F4EE81FF81988580E062E008C0E9
:100D40008985181709F5EA85FB859C8581E063E0B4
:100D5000992311F044E001C040E06295660F660FF0
:100D6000607C682B28E030E080E003C08F5F220FBA
:100D7000331F2E173F07D0F342608295807F482BA8
:100D8000812F3ADB882329F01F5F153041F681E07F
:100D900001C080E0DF91CF911F910895DF93CF9341
:100DA0000F92CDB7DEB7FC018EB38430F1F4278506
:100DB0003089418952892115310541055105A9F034
:100DC00081818093E9008091E80085FD0AC08091CF
:100DD000E8008E778093E800698340DB698188238F
:100DE00029F46093F10080E001C082E00F90CF9180
:100DF000DF910895FC018EB3843011F52785308989
:100E0000418952892115310541055105C9F081817A
:100E10008093E9008091F2008823A1F09091E8008E
:100E20008091E8008E778093E80095FD0DC016DB79
:100E3000882359F49091E8009E779093E8000895F4
:100E400082E0089580E0089580E008952EB3243074
:100E500059F4FC01278530894189528921153105D2
:100E60004105510509F0C6CF0895FC018EB38430C9
:100E700021F52785308941895289211531054105A0
:100E80005105D9F085818093E9008091E80082FFC7
:100E900014C08091F200882321F02091F10030E00D
:100EA00002C02FEF3FEF8091F200882341F4809140
:100EB000E8008B778093E80002C02FEF3FEFC90175
:100EC00008950895A1E21A2EAA1BBB1BFD010DC0B7
:100ED000AA1FBB1FEE1FFF1FA217B307E407F507EA
:100EE00020F0A21BB30BE40BF50B661F771F881FC6
:100EF000991F1A9469F760957095809590959B015C
:0C0F0000AC01BD01CF010895F894FFCFB3
:100F0C0000031000000410000002080000000000A4
:100F1C0000000000000048656C6C6F20776F726CED
:0A0F2C0064210A0D001601302000B8
:00000001FF
