:100000000C9442000C945F000C945F000C945F0011
:100010000C945F000C945F000C945F000C945F00E4
:100020000C945F000C945F000C945F000C945F00D4
:100030000C945F000C945F000C945F000C945F00C4
:100040000C945F000C945F000C945F000C94B00162
:100050000C945F000C945F000C945F000C945F00A4
:100060000C945F000C945F000C945F000C945F0094
:100070000C945F00D800E900F9000A011A012B0175
:100080003B01520111241FBECFEFD2E0DEBFCDBF36
:1000900011E0A0E0B1E0E2ECF3E002C005900D92C7
:1000A000A434B107D9F711E0A4E4B1E001C01D9276
:1000B000AE34B107E1F70E94D4010C94DF010C9437
:1000C000000080914D01873130F480914D018F5FA8
:1000D00080934D01089510924D01089580914B0138
:1000E0008B3330F480914B018F5F80934B010895E7
:1000F00010924B010C946100809146018B3330F4D7
:10010000809146018F5F80934601089510924601C9
:100110000C946E008091490190914A010196909350
:100120004A01809349012091490130914A0180910F
:100130004701909148012817390748F010924A0169
:100140001092490181E08093450180934C0108950C
:1001500010924A01109249010895F8948FEF8AB9DC
:100160001BB88FE084B915B817B880EE88B9109223
:10017000460110924B0110924D0110924C011092C9
:10018000450188EE93E090934801809347010E94D7
:10019000A50178940895E09144018E2F90E0883075
:1001A000910508F097C0FC01E65CFF4F0C94D90163
:1001B000E0914D01F0E0E050FF4F808182958F701B
:1001C00085B98FE99FE00197F1F700C0000082E058
:1001D0005BC0E0914D01F0E0E050FF4F80818F70F7
:1001E00085B98FE99FE00197F1F700C0000084E036
:1001F0004BC0E0914B01F0E0E050FF4F80818295D1
:100200008F7085B98FE99FE00197F1F700C000007A
:1002100088E03AC0E0914B01F0E0E050FF4F808170
:100220008F7085B98FE99FE00197F1F700C000005A
:1002300080E12AC0E0914601F0E0E050FF4F80816C
:1002400082958F7085B98FE99FE00197F1F700C023
:10025000000080E219C0E0914601F0E0E050FF4F5D
:1002600080818F7085B98FE99FE00197F1F700C019
:10027000000080E409C08EE085B98FE99FE0019716
:10028000F1F700C0000081E08BB98FE99FE0019792
:10029000F1F700C000001BB8809144018F5F80938C
:1002A000440108958091460181708E6085B98FE97F
:1002B0009FE00197F1F700C0000080E88BB98FE95B
:1002C0009FE00197F1F700C000001BB810924401B5
:1002D00010924C010895379903C084E690E002C063
:1002E00088EE93E09093480180934701369903C0CC
:1002F0008AE090E002C088EE93E0909348018093FA
:100300004701359903C081E090E002C088EE93E098
:10031000909348018093470180914501882379F0AB
:1003200086B190E080959095807E9927892B19F071
:100330000E946E0002C00E947C00109245018091D4
:100340004C0181110C94CB00089582E084BD93E0B0
:1003500095BD16BC99EF97BD80936E000C94A800D4
:100360001F920F920FB60F9211242F933F934F932A
:100370005F936F937F938F939F93AF93BF93EF930D
:10038000FF930E948A00FF91EF91BF91AF919F91DF
:100390008F917F916F915F914F913F912F910F902E
:1003A0000FBE0F901F9018950E94AD000E946B0128
:1003B000FDCFEE0FFF1F0590F491E02D0994F89406
:0203C000FFCF6D
:1003C200000102030405060708091011121314158F
:1003D20016171819202122232425262728293031EF
:1003E2003233343536373839404142434445464743
:1003F20048495051525354555657585901000A0012
:040402006400E803A7
:00000001FF
